{
    "contractName": "NFTMarketplace",
    "abi": [
        {
            "inputs": [
                {
                    "internalType": "address",
                    "name": "marketplaceAddress",
                    "type": "address"
                }
            ],
            "stateMutability": "nonpayable",
            "type": "constructor"
        },
        {
            "inputs": [
                {
                    "internalType": "address",
                    "name": "sender",
                    "type": "address"
                },
                {
                    "internalType": "uint256",
                    "name": "tokenId",
                    "type": "uint256"
                },
                {
                    "internalType": "address",
                    "name": "owner",
                    "type": "address"
                }
            ],
            "name": "ERC721IncorrectOwner",
            "type": "error"
        },
        {
            "inputs": [
                {
                    "internalType": "address",
                    "name": "operator",
                    "type": "address"
                },
                {
                    "internalType": "uint256",
                    "name": "tokenId",
                    "type": "uint256"
                }
            ],
            "name": "ERC721InsufficientApproval",
            "type": "error"
        },
        {
            "inputs": [
                {
                    "internalType": "address",
                    "name": "approver",
                    "type": "address"
                }
            ],
            "name": "ERC721InvalidApprover",
            "type": "error"
        },
        {
            "inputs": [
                {
                    "internalType": "address",
                    "name": "operator",
                    "type": "address"
                }
            ],
            "name": "ERC721InvalidOperator",
            "type": "error"
        },
        {
            "inputs": [
                {
                    "internalType": "address",
                    "name": "owner",
                    "type": "address"
                }
            ],
            "name": "ERC721InvalidOwner",
            "type": "error"
        },
        {
            "inputs": [
                {
                    "internalType": "address",
                    "name": "receiver",
                    "type": "address"
                }
            ],
            "name": "ERC721InvalidReceiver",
            "type": "error"
        },
        {
            "inputs": [
                {
                    "internalType": "address",
                    "name": "sender",
                    "type": "address"
                }
            ],
            "name": "ERC721InvalidSender",
            "type": "error"
        },
        {
            "inputs": [
                {
                    "internalType": "uint256",
                    "name": "tokenId",
                    "type": "uint256"
                }
            ],
            "name": "ERC721NonexistentToken",
            "type": "error"
        },
        {
            "anonymous": false,
            "inputs": [
                {
                    "indexed": true,
                    "internalType": "address",
                    "name": "owner",
                    "type": "address"
                },
                {
                    "indexed": true,
                    "internalType": "address",
                    "name": "approved",
                    "type": "address"
                },
                {
                    "indexed": true,
                    "internalType": "uint256",
                    "name": "tokenId",
                    "type": "uint256"
                }
            ],
            "name": "Approval",
            "type": "event"
        },
        {
            "anonymous": false,
            "inputs": [
                {
                    "indexed": true,
                    "internalType": "address",
                    "name": "owner",
                    "type": "address"
                },
                {
                    "indexed": true,
                    "internalType": "address",
                    "name": "operator",
                    "type": "address"
                },
                {
                    "indexed": false,
                    "internalType": "bool",
                    "name": "approved",
                    "type": "bool"
                }
            ],
            "name": "ApprovalForAll",
            "type": "event"
        },
        {
            "anonymous": false,
            "inputs": [
                {
                    "indexed": false,
                    "internalType": "uint256",
                    "name": "_fromTokenId",
                    "type": "uint256"
                },
                {
                    "indexed": false,
                    "internalType": "uint256",
                    "name": "_toTokenId",
                    "type": "uint256"
                }
            ],
            "name": "BatchMetadataUpdate",
            "type": "event"
        },
        {
            "anonymous": false,
            "inputs": [
                {
                    "indexed": false,
                    "internalType": "uint256",
                    "name": "_tokenId",
                    "type": "uint256"
                }
            ],
            "name": "MetadataUpdate",
            "type": "event"
        },
        {
            "anonymous": false,
            "inputs": [
                {
                    "indexed": true,
                    "internalType": "address",
                    "name": "from",
                    "type": "address"
                },
                {
                    "indexed": true,
                    "internalType": "address",
                    "name": "to",
                    "type": "address"
                },
                {
                    "indexed": true,
                    "internalType": "uint256",
                    "name": "tokenId",
                    "type": "uint256"
                }
            ],
            "name": "Transfer",
            "type": "event"
        },
        {
            "anonymous": false,
            "inputs": [
                {
                    "indexed": true,
                    "internalType": "uint256",
                    "name": "tokenId",
                    "type": "uint256"
                },
                {
                    "indexed": false,
                    "internalType": "address",
                    "name": "seller",
                    "type": "address"
                },
                {
                    "indexed": false,
                    "internalType": "address",
                    "name": "owner",
                    "type": "address"
                },
                {
                    "indexed": false,
                    "internalType": "uint256",
                    "name": "price",
                    "type": "uint256"
                },
                {
                    "indexed": false,
                    "internalType": "bool",
                    "name": "sold",
                    "type": "bool"
                }
            ],
            "name": "idMarketItemCreated",
            "type": "event"
        },
        {
            "inputs": [
                {
                    "internalType": "address",
                    "name": "to",
                    "type": "address"
                },
                {
                    "internalType": "uint256",
                    "name": "tokenId",
                    "type": "uint256"
                }
            ],
            "name": "approve",
            "outputs": [],
            "stateMutability": "nonpayable",
            "type": "function"
        },
        {
            "inputs": [
                {
                    "internalType": "address",
                    "name": "owner",
                    "type": "address"
                }
            ],
            "name": "balanceOf",
            "outputs": [
                {
                    "internalType": "uint256",
                    "name": "",
                    "type": "uint256"
                }
            ],
            "stateMutability": "view",
            "type": "function"
        },
        {
            "inputs": [
                {
                    "internalType": "string",
                    "name": "tokenURI",
                    "type": "string"
                },
                {
                    "internalType": "uint256",
                    "name": "price",
                    "type": "uint256"
                }
            ],
            "name": "createToken",
            "outputs": [
                {
                    "internalType": "uint256",
                    "name": "",
                    "type": "uint256"
                }
            ],
            "stateMutability": "payable",
            "type": "function"
        },
        {
            "inputs": [
                {
                    "internalType": "uint256",
                    "name": "tokenId",
                    "type": "uint256"
                }
            ],
            "name": "getApproved",
            "outputs": [
                {
                    "internalType": "address",
                    "name": "",
                    "type": "address"
                }
            ],
            "stateMutability": "view",
            "type": "function"
        },
        {
            "inputs": [],
            "name": "getCreationPrice",
            "outputs": [
                {
                    "internalType": "uint256",
                    "name": "",
                    "type": "uint256"
                }
            ],
            "stateMutability": "view",
            "type": "function"
        },
        {
            "inputs": [],
            "name": "getPriceList",
            "outputs": [
                {
                    "internalType": "uint256",
                    "name": "",
                    "type": "uint256"
                }
            ],
            "stateMutability": "view",
            "type": "function"
        },
        {
            "inputs": [
                {
                    "internalType": "address",
                    "name": "",
                    "type": "address"
                }
            ],
            "name": "idMarketItem",
            "outputs": [
                {
                    "internalType": "uint256",
                    "name": "tokenId",
                    "type": "uint256"
                },
                {
                    "internalType": "address payable",
                    "name": "seller",
                    "type": "address"
                },
                {
                    "internalType": "address payable",
                    "name": "owner",
                    "type": "address"
                },
                {
                    "internalType": "uint256",
                    "name": "price",
                    "type": "uint256"
                },
                {
                    "internalType": "bool",
                    "name": "sold",
                    "type": "bool"
                }
            ],
            "stateMutability": "view",
            "type": "function"
        },
        {
            "inputs": [
                {
                    "internalType": "address",
                    "name": "owner",
                    "type": "address"
                },
                {
                    "internalType": "address",
                    "name": "operator",
                    "type": "address"
                }
            ],
            "name": "isApprovedForAll",
            "outputs": [
                {
                    "internalType": "bool",
                    "name": "",
                    "type": "bool"
                }
            ],
            "stateMutability": "view",
            "type": "function"
        },
        {
            "inputs": [],
            "name": "name",
            "outputs": [
                {
                    "internalType": "string",
                    "name": "",
                    "type": "string"
                }
            ],
            "stateMutability": "view",
            "type": "function"
        },
        {
            "inputs": [
                {
                    "internalType": "uint256",
                    "name": "tokenId",
                    "type": "uint256"
                }
            ],
            "name": "ownerOf",
            "outputs": [
                {
                    "internalType": "address",
                    "name": "",
                    "type": "address"
                }
            ],
            "stateMutability": "view",
            "type": "function"
        },
        {
            "inputs": [
                {
                    "internalType": "address",
                    "name": "from",
                    "type": "address"
                },
                {
                    "internalType": "address",
                    "name": "to",
                    "type": "address"
                },
                {
                    "internalType": "uint256",
                    "name": "tokenId",
                    "type": "uint256"
                }
            ],
            "name": "safeTransferFrom",
            "outputs": [],
            "stateMutability": "nonpayable",
            "type": "function"
        },
        {
            "inputs": [
                {
                    "internalType": "address",
                    "name": "from",
                    "type": "address"
                },
                {
                    "internalType": "address",
                    "name": "to",
                    "type": "address"
                },
                {
                    "internalType": "uint256",
                    "name": "tokenId",
                    "type": "uint256"
                },
                {
                    "internalType": "bytes",
                    "name": "data",
                    "type": "bytes"
                }
            ],
            "name": "safeTransferFrom",
            "outputs": [],
            "stateMutability": "nonpayable",
            "type": "function"
        },
        {
            "inputs": [
                {
                    "internalType": "address",
                    "name": "operator",
                    "type": "address"
                },
                {
                    "internalType": "bool",
                    "name": "approved",
                    "type": "bool"
                }
            ],
            "name": "setApprovalForAll",
            "outputs": [],
            "stateMutability": "nonpayable",
            "type": "function"
        },
        {
            "inputs": [
                {
                    "internalType": "bytes4",
                    "name": "interfaceId",
                    "type": "bytes4"
                }
            ],
            "name": "supportsInterface",
            "outputs": [
                {
                    "internalType": "bool",
                    "name": "",
                    "type": "bool"
                }
            ],
            "stateMutability": "view",
            "type": "function"
        },
        {
            "inputs": [],
            "name": "symbol",
            "outputs": [
                {
                    "internalType": "string",
                    "name": "",
                    "type": "string"
                }
            ],
            "stateMutability": "view",
            "type": "function"
        },
        {
            "inputs": [
                {
                    "internalType": "uint256",
                    "name": "tokenId",
                    "type": "uint256"
                }
            ],
            "name": "tokenURI",
            "outputs": [
                {
                    "internalType": "string",
                    "name": "",
                    "type": "string"
                }
            ],
            "stateMutability": "view",
            "type": "function"
        },
        {
            "inputs": [
                {
                    "internalType": "address",
                    "name": "from",
                    "type": "address"
                },
                {
                    "internalType": "address",
                    "name": "to",
                    "type": "address"
                },
                {
                    "internalType": "uint256",
                    "name": "tokenId",
                    "type": "uint256"
                }
            ],
            "name": "transferFrom",
            "outputs": [],
            "stateMutability": "nonpayable",
            "type": "function"
        },
        {
            "inputs": [
                {
                    "internalType": "uint256",
                    "name": "_creationPrice",
                    "type": "uint256"
                }
            ],
            "name": "updateCreationPrice",
            "outputs": [],
            "stateMutability": "payable",
            "type": "function"
        }
    ],
    "bytecode": "60806040526605543df729c0006009553480156200001b575f80fd5b5060405162001574380380620015748339810160408190526200003e91620000db565b6040518060400160405280601081526020016f4d657461766572736520546f6b656e7360801b815250604051806040016040528060048152602001631351551560e21b815250815f9081620000949190620001a8565b506001620000a38282620001a8565b505060078054336001600160a01b031991821617909155600880549091166001600160a01b0393909316929092179091555062000274565b5f60208284031215620000ec575f80fd5b81516001600160a01b038116811462000103575f80fd5b9392505050565b634e487b7160e01b5f52604160045260245ffd5b600181811c908216806200013357607f821691505b6020821081036200015257634e487b7160e01b5f52602260045260245ffd5b50919050565b601f821115620001a357805f5260205f20601f840160051c810160208510156200017f5750805b601f840160051c820191505b81811015620001a0575f81556001016200018b565b50505b505050565b81516001600160401b03811115620001c457620001c46200010a565b620001dc81620001d584546200011e565b8462000158565b602080601f83116001811462000212575f8415620001fa5750858301515b5f19600386901b1c1916600185901b1785556200026c565b5f85815260208120601f198616915b82811015620002425788860151825594840194600190910190840162000221565b50858210156200026057878501515f19600388901b60f8161c191681555b505060018460011b0185555b505050505050565b6112f280620002825f395ff3fe608060405260043610610105575f3560e01c806370a0823111610092578063ac8b8cb511610062578063ac8b8cb5146102a9578063b702914414610207578063b88d4fde14610336578063c87b56dd14610355578063e985e9c514610374575f80fd5b806370a082311461024457806372b3b6201461026357806395d89b4114610276578063a22cb4651461028a575f80fd5b806323b872dd116100d857806323b872dd146101b65780633352279b146101d557806342842e0e146101e85780635602fc43146102075780636352211e14610225575f80fd5b806301ffc9a71461010957806306fdde031461013d578063081812fc1461015e578063095ea7b314610195575b5f80fd5b348015610114575f80fd5b50610128610123366004610efd565b610393565b60405190151581526020015b60405180910390f35b348015610148575f80fd5b506101516103bd565b6040516101349190610f65565b348015610169575f80fd5b5061017d610178366004610f77565b61044c565b6040516001600160a01b039091168152602001610134565b3480156101a0575f80fd5b506101b46101af366004610fa9565b610473565b005b3480156101c1575f80fd5b506101b46101d0366004610fd1565b610482565b6101b46101e3366004610f77565b610510565b3480156101f3575f80fd5b506101b4610202366004610fd1565b61057f565b348015610212575f80fd5b506009545b604051908152602001610134565b348015610230575f80fd5b5061017d61023f366004610f77565b61059e565b34801561024f575f80fd5b5061021761025e36600461100a565b6105a8565b6102176102713660046110aa565b6105ed565b348015610281575f80fd5b50610151610615565b348015610295575f80fd5b506101b46102a43660046110ff565b610624565b3480156102b4575f80fd5b506103006102c336600461100a565b600c6020525f90815260409020805460018201546002830154600384015460049094015492936001600160a01b0392831693929091169160ff1685565b604080519586526001600160a01b039485166020870152929093169184019190915260608301521515608082015260a001610134565b348015610341575f80fd5b506101b4610350366004611138565b61062f565b348015610360575f80fd5b5061015161036f366004610f77565b610646565b34801561037f575f80fd5b5061012861038e3660046111af565b610751565b5f6001600160e01b03198216632483248360e11b14806103b757506103b78261077e565b92915050565b60605f80546103cb906111e0565b80601f01602080910402602001604051908101604052809291908181526020018280546103f7906111e0565b80156104425780601f1061041957610100808354040283529160200191610442565b820191905f5260205f20905b81548152906001019060200180831161042557829003601f168201915b5050505050905090565b5f610456826107cd565b505f828152600460205260409020546001600160a01b03166103b7565b61047e828233610805565b5050565b6001600160a01b0382166104b057604051633250574960e11b81525f60048201526024015b60405180910390fd5b5f6104bc838333610812565b9050836001600160a01b0316816001600160a01b03161461050a576040516364283d7b60e01b81526001600160a01b03808616600483015260248201849052821660448201526064016104a7565b50505050565b6007546001600160a01b0316331461057a5760405162461bcd60e51b815260206004820152602760248201527f6f6e6c792061646d696e2063616e206368616e6765204e4654206c697374696e6044820152666720707269636560c81b60648201526084016104a7565b600955565b61059983838360405180602001604052805f81525061062f565b505050565b5f6103b7826107cd565b5f6001600160a01b0382166105d2576040516322718ad960e21b81525f60048201526024016104a7565b506001600160a01b03165f9081526003602052604090205490565b5f6105f8600a610904565b5f610602600a5490565b905061060e338261091f565b5092915050565b6060600180546103cb906111e0565b61047e338383610980565b61063a848484610482565b61050a84848484610a1e565b6060610651826107cd565b505f828152600660205260408120805461066a906111e0565b80601f0160208091040260200160405190810160405280929190818152602001828054610696906111e0565b80156106e15780601f106106b8576101008083540402835291602001916106e1565b820191905f5260205f20905b8154815290600101906020018083116106c457829003601f168201915b505050505090505f6106fd60408051602081019091525f815290565b905080515f0361070e575092915050565b815115610740578082604051602001610728929190611218565b60405160208183030381529060405292505050919050565b61074984610b44565b949350505050565b6001600160a01b039182165f90815260056020908152604080832093909416825291909152205460ff1690565b5f6001600160e01b031982166380ac58cd60e01b14806107ae57506001600160e01b03198216635b5e139f60e01b145b806103b757506301ffc9a760e01b6001600160e01b03198316146103b7565b5f818152600260205260408120546001600160a01b0316806103b757604051637e27328960e01b8152600481018490526024016104a7565b6105998383836001610bb5565b5f828152600260205260408120546001600160a01b039081169083161561083e5761083e818486610cb9565b6001600160a01b03811615610878576108595f855f80610bb5565b6001600160a01b0381165f90815260036020526040902080545f190190555b6001600160a01b038516156108a6576001600160a01b0385165f908152600360205260409020805460010190555b5f8481526002602052604080822080546001600160a01b0319166001600160a01b0389811691821790925591518793918516917fddf252ad1be2c89b69c2b068fc378daa952ba7f163c4a11628f55a4df523b3ef91a4949350505050565b6001815f015f8282546109179190611246565b909155505050565b6001600160a01b03821661094857604051633250574960e11b81525f60048201526024016104a7565b5f61095483835f610812565b90506001600160a01b03811615610599576040516339e3563760e11b81525f60048201526024016104a7565b6001600160a01b0382166109b257604051630b61174360e31b81526001600160a01b03831660048201526024016104a7565b6001600160a01b038381165f81815260056020908152604080832094871680845294825291829020805460ff191686151590811790915591519182527f17307eab39ab6107e8899845ad3d59bd9653f200f220920489ca2b5937696c31910160405180910390a3505050565b6001600160a01b0383163b1561050a57604051630a85bd0160e11b81526001600160a01b0384169063150b7a0290610a60903390889087908790600401611265565b6020604051808303815f875af1925050508015610a9a575060408051601f3d908101601f19168201909252610a97918101906112a1565b60015b610b01573d808015610ac7576040519150601f19603f3d011682016040523d82523d5f602084013e610acc565b606091505b5080515f03610af957604051633250574960e11b81526001600160a01b03851660048201526024016104a7565b805181602001fd5b6001600160e01b03198116630a85bd0160e11b14610b3d57604051633250574960e11b81526001600160a01b03851660048201526024016104a7565b5050505050565b6060610b4f826107cd565b505f610b6560408051602081019091525f815290565b90505f815111610b835760405180602001604052805f815250610bae565b80610b8d84610d1d565b604051602001610b9e929190611218565b6040516020818303038152906040525b9392505050565b8080610bc957506001600160a01b03821615155b15610c8a575f610bd8846107cd565b90506001600160a01b03831615801590610c045750826001600160a01b0316816001600160a01b031614155b8015610c175750610c158184610751565b155b15610c405760405163a9fbf51f60e01b81526001600160a01b03841660048201526024016104a7565b8115610c885783856001600160a01b0316826001600160a01b03167f8c5be1e5ebec7d5bd14f71427d1e84f3dd0314c0f7b2291e5b200ac8c7c3b92560405160405180910390a45b505b50505f90815260046020526040902080546001600160a01b0319166001600160a01b0392909216919091179055565b610cc4838383610dad565b610599576001600160a01b038316610cf257604051637e27328960e01b8152600481018290526024016104a7565b60405163177e802f60e01b81526001600160a01b0383166004820152602481018290526044016104a7565b60605f610d2983610e0e565b60010190505f8167ffffffffffffffff811115610d4857610d48611023565b6040519080825280601f01601f191660200182016040528015610d72576020820181803683370190505b5090508181016020015b5f19016f181899199a1a9b1b9c1cb0b131b232b360811b600a86061a8153600a8504945084610d7c57509392505050565b5f6001600160a01b038316158015906107495750826001600160a01b0316846001600160a01b03161480610de65750610de68484610751565b806107495750505f908152600460205260409020546001600160a01b03908116911614919050565b5f8072184f03e93ff9f4daa797ed6e38ed64bf6a1f0160401b8310610e4c5772184f03e93ff9f4daa797ed6e38ed64bf6a1f0160401b830492506040015b6d04ee2d6d415b85acef81000000008310610e78576d04ee2d6d415b85acef8100000000830492506020015b662386f26fc100008310610e9657662386f26fc10000830492506010015b6305f5e1008310610eae576305f5e100830492506008015b6127108310610ec257612710830492506004015b60648310610ed4576064830492506002015b600a83106103b75760010192915050565b6001600160e01b031981168114610efa575f80fd5b50565b5f60208284031215610f0d575f80fd5b8135610bae81610ee5565b5f5b83811015610f32578181015183820152602001610f1a565b50505f910152565b5f8151808452610f51816020860160208601610f18565b601f01601f19169290920160200192915050565b602081525f610bae6020830184610f3a565b5f60208284031215610f87575f80fd5b5035919050565b80356001600160a01b0381168114610fa4575f80fd5b919050565b5f8060408385031215610fba575f80fd5b610fc383610f8e565b946020939093013593505050565b5f805f60608486031215610fe3575f80fd5b610fec84610f8e565b9250610ffa60208501610f8e565b9150604084013590509250925092565b5f6020828403121561101a575f80fd5b610bae82610f8e565b634e487b7160e01b5f52604160045260245ffd5b5f67ffffffffffffffff8084111561105157611051611023565b604051601f8501601f19908116603f0116810190828211818310171561107957611079611023565b81604052809350858152868686011115611091575f80fd5b858560208301375f602087830101525050509392505050565b5f80604083850312156110bb575f80fd5b823567ffffffffffffffff8111156110d1575f80fd5b8301601f810185136110e1575f80fd5b6110f085823560208401611037565b95602094909401359450505050565b5f8060408385031215611110575f80fd5b61111983610f8e565b91506020830135801515811461112d575f80fd5b809150509250929050565b5f805f806080858703121561114b575f80fd5b61115485610f8e565b935061116260208601610f8e565b925060408501359150606085013567ffffffffffffffff811115611184575f80fd5b8501601f81018713611194575f80fd5b6111a387823560208401611037565b91505092959194509250565b5f80604083850312156111c0575f80fd5b6111c983610f8e565b91506111d760208401610f8e565b90509250929050565b600181811c908216806111f457607f821691505b60208210810361121257634e487b7160e01b5f52602260045260245ffd5b50919050565b5f8351611229818460208801610f18565b83519083019061123d818360208801610f18565b01949350505050565b808201808211156103b757634e487b7160e01b5f52601160045260245ffd5b6001600160a01b03858116825284166020820152604081018390526080606082018190525f9061129790830184610f3a565b9695505050505050565b5f602082840312156112b1575f80fd5b8151610bae81610ee556fea26469706673582212200567add8a7d528c67530466c55d4236f2a0397df19d97f598d1ee14363ef9e5d64736f6c63430008180033",
    "sourcePath": "/home/emenike/Desktop/nft_marketplace/contracts/NFTMarketplace.sol",
    "compiler": {
        "name": "solc",
        "version": "0.8.24+commit.e11b9ed9"
    },
    "functionHashes": {
        "approve(address,uint256)": "095ea7b3",
        "balanceOf(address)": "70a08231",
        "createToken(string,uint256)": "72b3b620",
        "getApproved(uint256)": "081812fc",
        "getCreationPrice()": "5602fc43",
        "getPriceList()": "b7029144",
        "idMarketItem(address)": "ac8b8cb5",
        "isApprovedForAll(address,address)": "e985e9c5",
        "name()": "06fdde03",
        "ownerOf(uint256)": "6352211e",
        "safeTransferFrom(address,address,uint256)": "42842e0e",
        "safeTransferFrom(address,address,uint256,bytes)": "b88d4fde",
        "setApprovalForAll(address,bool)": "a22cb465",
        "supportsInterface(bytes4)": "01ffc9a7",
        "symbol()": "95d89b41",
        "tokenURI(uint256)": "c87b56dd",
        "transferFrom(address,address,uint256)": "23b872dd",
        "updateCreationPrice(uint256)": "3352279b"
    },
    "gasEstimates": {
        "creation": {
            "codeDepositCost": "970000",
            "executionCost": "infinite",
            "totalCost": "infinite"
        },
        "external": {
            "approve(address,uint256)": "31531",
            "balanceOf(address)": "2608",
            "createToken(string,uint256)": "infinite",
            "getApproved(uint256)": "infinite",
            "getCreationPrice()": "2369",
            "getPriceList()": "2324",
            "idMarketItem(address)": "11148",
            "isApprovedForAll(address,address)": "infinite",
            "name()": "infinite",
            "ownerOf(uint256)": "infinite",
            "safeTransferFrom(address,address,uint256)": "infinite",
            "safeTransferFrom(address,address,uint256,bytes)": "infinite",
            "setApprovalForAll(address,bool)": "26745",
            "supportsInterface(bytes4)": "infinite",
            "symbol()": "infinite",
            "tokenURI(uint256)": "infinite",
            "transferFrom(address,address,uint256)": "infinite",
            "updateCreationPrice(uint256)": "24483"
        }
    }
}