{
    "contractName": "NFTMarketplace",
    "abi": [
        {
            "inputs": [],
            "stateMutability": "nonpayable",
            "type": "constructor"
        },
        {
            "anonymous": false,
            "inputs": [
                {
                    "indexed": true,
                    "internalType": "uint256",
                    "name": "tokenId",
                    "type": "uint256"
                },
                {
                    "indexed": false,
                    "internalType": "address",
                    "name": "seller",
                    "type": "address"
                },
                {
                    "indexed": false,
                    "internalType": "address",
                    "name": "owner",
                    "type": "address"
                },
                {
                    "indexed": false,
                    "internalType": "uint256",
                    "name": "price",
                    "type": "uint256"
                },
                {
                    "indexed": false,
                    "internalType": "bool",
                    "name": "sold",
                    "type": "bool"
                }
            ],
            "name": "idMarketItemCreated",
            "type": "event"
        },
        {
            "inputs": [
                {
                    "internalType": "string",
                    "name": "tokenURI",
                    "type": "string"
                },
                {
                    "internalType": "uint256",
                    "name": "price",
                    "type": "uint256"
                }
            ],
            "name": "createToken",
            "outputs": [
                {
                    "internalType": "uint256",
                    "name": "",
                    "type": "uint256"
                }
            ],
            "stateMutability": "payable",
            "type": "function"
        },
        {
            "inputs": [],
            "name": "getCreationPrice",
            "outputs": [
                {
                    "internalType": "uint256",
                    "name": "",
                    "type": "uint256"
                }
            ],
            "stateMutability": "view",
            "type": "function"
        },
        {
            "inputs": [],
            "name": "getPriceList",
            "outputs": [
                {
                    "internalType": "uint256",
                    "name": "",
                    "type": "uint256"
                }
            ],
            "stateMutability": "view",
            "type": "function"
        },
        {
            "inputs": [
                {
                    "internalType": "address",
                    "name": "",
                    "type": "address"
                }
            ],
            "name": "idMarketItem",
            "outputs": [
                {
                    "internalType": "uint256",
                    "name": "tokenId",
                    "type": "uint256"
                },
                {
                    "internalType": "address payable",
                    "name": "seller",
                    "type": "address"
                },
                {
                    "internalType": "address payable",
                    "name": "owner",
                    "type": "address"
                },
                {
                    "internalType": "uint256",
                    "name": "price",
                    "type": "uint256"
                },
                {
                    "internalType": "bool",
                    "name": "sold",
                    "type": "bool"
                }
            ],
            "stateMutability": "view",
            "type": "function"
        },
        {
            "inputs": [
                {
                    "internalType": "uint256",
                    "name": "_creationPrice",
                    "type": "uint256"
                }
            ],
            "name": "updateCreationPrice",
            "outputs": [],
            "stateMutability": "payable",
            "type": "function"
        }
    ],
    "bytecode": "60806040526605543df729c00060015534801561001a575f80fd5b505f80546001600160a01b03191633179055610332806100395f395ff3fe608060405260043610610049575f3560e01c80633352279b1461004d5780635602fc431461006257806372b3b62014610085578063ac8b8cb514610098578063b702914414610062575b5f80fd5b61006061005b3660046101d0565b610125565b005b34801561006d575f80fd5b506001545b6040519081526020015b60405180910390f35b6100726100933660046101fb565b610197565b3480156100a3575f80fd5b506100ef6100b23660046102aa565b600460208190525f91825260409091208054600182015460028301546003840154939094015491936001600160a01b039182169391169160ff1685565b604080519586526001600160a01b039485166020870152929093169184019190915260608301521515608082015260a00161007c565b5f546001600160a01b031633146101925760405162461bcd60e51b815260206004820152602760248201527f6f6e6c792061646d696e2063616e206368616e6765204e4654206c697374696e6044820152666720707269636560c81b606482015260840160405180910390fd5b600155565b5f6101a260026101b5565b5f6101ac60025490565b90505092915050565b6001815f015f8282546101c891906102d7565b909155505050565b5f602082840312156101e0575f80fd5b5035919050565b634e487b7160e01b5f52604160045260245ffd5b5f806040838503121561020c575f80fd5b823567ffffffffffffffff80821115610223575f80fd5b818501915085601f830112610236575f80fd5b813581811115610248576102486101e7565b604051601f8201601f19908116603f01168101908382118183101715610270576102706101e7565b81604052828152886020848701011115610288575f80fd5b826020860160208301375f602093820184015298969091013596505050505050565b5f602082840312156102ba575f80fd5b81356001600160a01b03811681146102d0575f80fd5b9392505050565b808201808211156102f657634e487b7160e01b5f52601160045260245ffd5b9291505056fea26469706673582212207da9732cdac6cfc8fe3deb10b9405df227926ada2a0ccafcbe7fbffe36c651ce64736f6c63430008180033",
    "sourcePath": "/home/emenike/Desktop/nft_marketplace/contracts/NFTMarketplace.sol",
    "compiler": {
        "name": "solc",
        "version": "0.8.24+commit.e11b9ed9"
    },
    "functionHashes": {
        "createToken(string,uint256)": "72b3b620",
        "getCreationPrice()": "5602fc43",
        "getPriceList()": "b7029144",
        "idMarketItem(address)": "ac8b8cb5",
        "updateCreationPrice(uint256)": "3352279b"
    },
    "gasEstimates": {
        "creation": {
            "codeDepositCost": "163600",
            "executionCost": "46546",
            "totalCost": "210146"
        },
        "external": {
            "createToken(string,uint256)": "infinite",
            "getCreationPrice()": "2269",
            "getPriceList()": "2335",
            "idMarketItem(address)": "11138",
            "updateCreationPrice(uint256)": "24415"
        }
    }
}